{
  "contractName": "MyBaseContract",
  "abi": [
    {
      "constant": true,
      "inputs": [
        {
          "internalType": "uint256",
          "name": "val",
          "type": "uint256"
        }
      ],
      "name": "innerAdd10",
      "outputs": [
        {
          "internalType": "uint256",
          "name": "",
          "type": "uint256"
        }
      ],
      "payable": false,
      "stateMutability": "pure",
      "type": "function"
    }
  ],
  "bytecode": "0x60806040526064600055348015601457600080fd5b5060ae806100236000396000f3fe6080604052348015600f57600080fd5b506004361060285760003560e01c8063a9937b6714602d575b600080fd5b605660048036036020811015604157600080fd5b8101908080359060200190929190505050606c565b6040518082815260200191505060405180910390f35b6000600a8201905091905056fea265627a7a723158205ee7a6b87d4dd5c380a8c9674a7c2300d22bb2b5e97666ede80fa03514371ad364736f6c63430005100032",
  "source": "// SPDX-License-Identifier: MIT\npragma solidity >=0.4.22 <0.9.0;\n\n// Contract to inherit from.\ncontract MyBaseContract {\n  uint innerVal = 100;\n  function innerAdd10(uint val) public pure returns(uint) {\n    return val + 10;\n  }\n}\n\n// Contract that inherits\n// MyContract \"Inherits From\" MyBaseContract\ncontract MyContract is MyBaseContract {\n  function outerAdd10(uint val) public pure returns(uint) {\n    return MyBaseContract.innerAdd10(val);\n  }\n\n  function getInnerVal() public view returns(uint) {\n    return MyBaseContract.innerVal;\n  }\n}\n",
  "sourcePath": "/home/pirate/Code/Solidity/EatTheBlocks/ContractInheritance/contracts/MyContract.sol",
  "compiler": {
    "name": "solc",
    "version": "0.5.16+commit.9c3226ce.Emscripten.clang"
  },
  "schemaVersion": "3.4.3",
  "updatedAt": "2021-10-31T02:01:43.828Z",
  "devdoc": {
    "methods": {}
  },
  "userdoc": {
    "methods": {}
  }
}